:100000000C9456000C9475000C9475000C947500BB
:100010000C9475000C9475000C9475000C9475008C
:100020000C9475000C9475000C9475000C9475007C
:100030000C9475000C94FB010C9475000C947500E5
:100040000C9475000C9475000C9475000C9475005C
:100050000C9475000C9475000C9475000C9475004C
:100060000C9475000C9475000C9475000C9475003C
:100070000C9475000C9475000C9475000C9475002C
:100080000C9475000C9475000C9475007502830235
:100090009302A302B302C302D302E30200030703E5
:1000A0000E0315031C0323032A03310311241FBE6F
:1000B000CFEFD0E4DEBFCDBF11E0A0E0B1E0E4EDD2
:1000C000F6E000E00BBF02C007900D92A231B1072D
:1000D000D9F711E0A2E1B1E001C01D92AB31B10747
:1000E000E1F70E943F030C9468030C940000CF9347
:1000F000C82F8A3019F48DE00E9477009091C000DB
:1001000095FFFCCFC093C60080E090E0CF910895AA
:10011000442349F021E030E002C0220F331F6A95EA
:10012000E2F7822B089521E030E002C0220F331F56
:100130006A95E2F720958223089521E030E002C01D
:10014000220F331F6A95E2F78223089540E050E0C2
:100150000CC000002F5F3F4F02C020E030E027308E
:1001600063E03607B4F34F5F5F4F48175907ACF3AE
:1001700008952E988BB92F9A00002F9882E090E076
:100180000E94A600089581E00E94B900089584E6C7
:1001900090E00E94A60088E30E94B90086E00E94D9
:1001A000B9008FE00E94B90081E00E94B9008AE0A6
:1001B00090E00E94A60008952E9A8BB92F9A000015
:1001C0002F9881E090E00E94A6000895813120F4EC
:1001D00081580E94B900089581550E94B900089580
:1001E000EF92FF920F931F93CF93DF93182FEB01A2
:1001F0000E94C3000EC001E0010F812F0E94E600A3
:100200007E018FEFE81AF80A88810E94DC00102F27
:10021000E70188818111EFCFDF91CF911F910F917D
:10022000FF90EF90089540E064E08FEF0E94880017
:100230008BB9000089B160E080950E949D0081111A
:1002400080C089B161E080950E949D0081117BC0D2
:1002500089B162E080950E949D00811176C089B1CC
:1002600063E080950E949D00811171C040E065E0CF
:100270008FEF0E9488008BB9000089B160E0809503
:100280000E949D00811165C089B161E080950E9446
:100290009D00811160C089B162E080950E949D003F
:1002A00081115BC089B163E080950E949D0081113E
:1002B00056C040E066E08FEF0E9488008BB90000D6
:1002C00089B160E080950E949D0081114AC089B18A
:1002D00061E080950E949D00811145C089B162E076
:1002E00080950E949D00811140C089B163E0809596
:1002F0000E949D0081113BC040E067E08FEF0E94AB
:1003000088008BB9000089B160E080950E949D0053
:1003100081112FC089B161E080950E949D008111FB
:100320002AC089B162E080950E949D00811125C09C
:1003300089B163E080950E949D008823F9F084E4F0
:10034000089581E3089584E3089587E308958AE298
:10035000089582E3089585E3089588E3089580E38E
:10036000089583E3089586E3089589E3089583E279
:10037000089581E4089582E4089583E408956093E4
:100380000001709301018093020190930301609337
:10039000140170931501809316019093170108952D
:1003A0008BE0809381008DE790E0909389008093AB
:1003B000880082E080936F00109285001092840084
:1003C0008091000190910101A0910201B09103017F
:1003D0008093140190931501A0931601B093170117
:1003E0008FB780688FBF089510928100089581E0D3
:1003F0008093180108951F920F920FB60F92112447
:100400000BB60F922F933F934F935F936F937F930E
:100410008F939F93AF93BF93EF93FF9380911401BA
:1004200090911501A0911601B09117010197A109B2
:10043000B1098093140190931501A0931601B09314
:100440001701892B8A2B8B2B91F40E94F701809145
:10045000000190910101A0910201B09103018093EC
:10046000140190931501A0931601B0931701FF9109
:10047000EF91BF91AF919F918F917F916F915F911C
:100480004F913F912F910F900BBE0F900FBE0F9089
:100490001F9018958FEB84B980E485B98CB5816580
:1004A0008CBD80E88FBF0895CF93C82F85B140E001
:1004B00064E00E94880085B9CEBD0DB407FEFDCF73
:1004C00085B141E064E00E94880085B9CF9108952C
:1004D0008091190190911A018830910508F081C02E
:1004E000FC01EA5BFF4F0C945F03892B39F481E038
:1004F00090E090931A018093190177C010921A012D
:100500001092190172C0019739F482E090E0909343
:100510001A018093190169C081E090E090931A015B
:100520008093190162C0029739F483E090E09093C0
:100530001A018093190159C082E090E090931A014A
:100540008093190152C0039739F484E090E09093AE
:100550001A018093190149C083E090E090931A0139
:100560008093190142C0049739F485E090E090939C
:100570001A018093190139C084E090E090931A0128
:100580008093190132C0059739F486E090E090938A
:100590001A018093190129C085E090E090931A0117
:1005A0008093190122C0069739F487E090E0909378
:1005B0001A018093190119C086E090E090931A0106
:1005C0008093190112C0079729F410921A01109212
:1005D00019010BC087E090E090931A0180931901F4
:1005E00004C010921A0110921901E0911901F091C2
:1005F0001A01E830F105E0F5E25BFF4F0C945F0370
:1006000081E090E09093130180931201089582E0BD
:1006100090E09093130180931201089584E090E09C
:100620009093130180931201089588E090E09093D5
:10063000130180931201089580E190E090931301DB
:1006400080931201089580E290E0909313018093CB
:100650001201089580E490E09093130180931201B9
:10066000089580E890E0909313018093120108951B
:100670008FEF90E09093130180931201089514B8C6
:100680008FEF85B987B918B80E944A0210921A01F3
:100690001092190164EF71E080E090E00E94BF01C8
:1006A0000E94D0010E946802809112010E945402AF
:1006B000809118018823E1F310921801F3CFEE0F17
:1006C000FF1F0024001C0BBE0790F691E02D09943B
:0406D000F894FFCFCC
:1006D400010000000000000200000000770000009C
:0206E400000014
:00000001FF
