:100000000C946A000C9489000C9489000C9489006B
:100010000C9489000C9489000C9489000C9489003C
:100020000C9489000C9489000C9489000C9489002C
:100030000C9489000C940F020C9489000C94890094
:100040000C9489000C9489000C9489000C9489000C
:100050000C9489000C9489000C9489000C948900FC
:100060000C9489000C9489000C9489000C948900EC
:100070000C9489000C9489000C9489000C948900DC
:100080000C9489000C9489000C94890089029702D1
:10009000A702B702C702D702E702F70214031B0345
:1000A00022032903300337033E03450383038A03F6
:1000B000910398039F03A603C803C803C803C8039A
:1000C000C803C803C803C803C803C803AD03B40307
:1000D000BB03C20311241FBECFEFD0E4DEBFCDBFF0
:1000E00011E0A0E0B1E0ECEEF7E000E00BBF02C0F1
:1000F00007900D92A032B107D9F711E0A0E2B1E06C
:1001000001C01D92AF32B107E1F70E9453030C9476
:10011000F4030C940000CF93C82F8A3019F48DE0BB
:100120000E948B009091C00095FFFCCFC093C60049
:1001300080E090E0CF910895442349F021E030E041
:1001400002C0220F331F6A95E2F7822B089521E047
:1001500030E002C0220F331F6A95E2F72095822318
:10016000089521E030E002C0220F331F6A95E2F7C4
:100170008223089540E050E00CC000002F5F3F4F05
:1001800002C020E030E0273063E03607B4F34F5F71
:100190005F4F48175907ACF3089540988BB9419ABF
:1001A0000000419882E090E00E94BA00089581E04A
:1001B0000E94CD00089584E690E00E94BA0088E392
:1001C0000E94CD0086E00E94CD008FE00E94CD000D
:1001D00081E00E94CD008AE090E00E94BA0008957C
:1001E000409A8BB9419A0000419881E090E00E94CA
:1001F000BA000895813120F481580E94CD000895FD
:1002000081550E94CD000895EF92FF920F931F93A6
:10021000CF93DF93182FEB010E94D7000EC001E0AF
:10022000010F812F0E94FA007E018FEFE81AF80A71
:1002300088810E94F000102FE70188818111EFCFA3
:10024000DF91CF911F910F91FF90EF90089540E0C3
:1002500064E08FEF0E949C0082B9000080B160E0F2
:1002600080950E94B100811180C080B161E08095CD
:100270000E94B10081117BC080B162E080950E9434
:10028000B100811176C080B163E080950E94B10019
:10029000811171C040E065E08FEF0E949C0082B93F
:1002A000000080B160E080950E94B100811165C0BE
:1002B00080B161E080950E94B100811160C080B181
:1002C00062E080950E94B10081115BC080B163E063
:1002D00080950E94B100811156C040E066E08FEF2A
:1002E0000E949C0082B9000080B160E080950E946D
:1002F000B10081114AC080B161E080950E94B100D7
:10030000811145C080B162E080950E94B1008111E9
:1003100040C080B163E080950E94B10081113BC074
:1003200040E067E08FEF0E949C0082B9000080B13E
:1003300060E080950E94B10081112FC080B161E022
:1003400080950E94B10081112AC080B162E0809541
:100350000E94B100811125C080B163E080950E94A8
:10036000B1008823F9F084E4089581E3089584E3DB
:10037000089587E308958AE2089582E3089585E366
:10038000089588E3089580E3089583E3089586E35C
:10039000089589E3089583E2089581E4089582E44D
:1003A000089583E4089560930001709301018093A0
:1003B00002019093030160932801709329018093B7
:1003C0002A0190932B0108958BE0809381008DE7A3
:1003D00090E0909389008093880082E080936F0082
:1003E000109285001092840080910001909101018B
:1003F000A0910201B09103018093280190932901FB
:10040000A0932A01B0932B018FB780688FBF089506
:1004100010928100089581E080932C0108951F922D
:100420000F920FB60F9211240BB60F922F933F939A
:100430004F935F936F937F938F939F93AF93BF93EC
:10044000EF93FF938091280190912901A0912A01B7
:10045000B0912B010197A109B109809328019093D4
:100460002901A0932A01B0932B01892B8A2B8B2B76
:1004700091F40E940B028091000190910101A091E2
:100480000201B09103018093280190932901A09368
:100490002A01B0932B01FF91EF91BF91AF919F91F2
:1004A0008F917F916F915F914F913F912F910F901D
:1004B0000BBE0F900FBE0F901F9018958FEB84B955
:1004C00080E485B98CB581658CBD80E88FBF0895C7
:1004D000CF93C82F85B140E064E00E949C0085B9AD
:1004E000CEBD0DB407FEFDCF85B141E064E00E94B2
:1004F0009C0085B9CF91089580912D0190912E0196
:100500008830910508F081C0FC01EA5BFF4F0C9434
:10051000EB03892B39F481E090E090932E018093D6
:100520002D0177C010922E0110922D0172C00197FB
:1005300039F482E090E090932E0180932D0169C000
:1005400081E090E090932E0180932D0162C002978C
:1005500039F483E090E090932E0180932D0159C0EF
:1005600082E090E090932E0180932D0152C003977A
:1005700039F484E090E090932E0180932D0149C0DE
:1005800083E090E090932E0180932D0142C0049768
:1005900039F485E090E090932E0180932D0139C0CD
:1005A00084E090E090932E0180932D0132C0059756
:1005B00039F486E090E090932E0180932D0129C0BC
:1005C00085E090E090932E0180932D0122C0069744
:1005D00039F487E090E090932E0180932D0119C0AB
:1005E00086E090E090932E0180932D0112C0079732
:1005F00029F410922E0110922D010BC087E090E09B
:1006000090932E0180932D0104C010922E01109220
:100610002D01E0912D01F0912E01E830F105E0F57A
:10062000E25BFF4F0C94EB0381E090E09093270195
:1006300080932601089582E090E0909327018093B3
:100640002601089584E090E090932701809326018D
:10065000089588E090E09093270180932601089503
:1006600080E190E09093270180932601089580E235
:1006700090E09093270180932601089580E490E014
:100680009093270180932601089580E890E090934D
:1006900027018093260108958FEF90E09093270122
:1006A00080932601089514B88FEF85B987B918B8DB
:1006B00090EF91B99FE092B98AB91BB80E945E028F
:1006C00010922E0110922D0164EF71E080E090E015
:1006D0000E94D3010E94E4010E94DB000E942701D6
:1006E0008093250181E00E94FA00E09125018E2F80
:1006F00090E0FC01F197E431F10508F049C0EA5AB5
:10070000FF4F0C94EB0381E08093230181E38093FE
:1007100021013EC082E08093230182E38093210186
:1007200037C083E08093230183E38093210130C0AD
:1007300084E08093230184E38093210129C085E034
:100740008093230185E38093210122C086E080937A
:10075000230186E3809321011BC080E18093220165
:1007600081E38093200114C080E28093220182E320
:10077000809320010DC080E38093220183E3809366
:10078000200106C080E48093220184E3809320014D
:100790009091220180912301892B809324010E9452
:1007A000680262E171E081E00E94040186E00E943B
:1007B000FA00809120010E94F0008DE00E94FA0072
:1007C000809121010E94F00080912C018823E1F3A7
:1007D00010922C0183CFEE0FFF1F0024001C0BBED4
:0C07E0000790F691E02D0994F894FFCFEB
:1007EC000100000000000002000000008B0000006F
:1007FC0000005074726E3A2020205370643A00004E
:00000001FF
