:100000000C946A000C9489000C9489000C9489006B
:100010000C9489000C9489000C9489000C9489003C
:100020000C9489000C9489000C9489000C9489002C
:100030000C9489000C940F020C9489000C94890094
:100040000C9489000C9489000C9489000C9489000C
:100050000C9489000C9489000C9489000C948900FC
:100060000C9489000C9489000C9489000C948900EC
:100070000C9489000C9489000C9489000C948900DC
:100080000C9489000C9489000C94890089029702D1
:10009000A702B702C702D702E702F70214031B0345
:1000A00022032903300337033E0345037A037E030B
:1000B000820386038A038E03A103A103A103A10384
:1000C000A103A103A103A103A103A103920396032A
:1000D0009A039E0311241FBECFEFD0E4DEBFCDBF35
:1000E00011E0A0E0B1E0E8E7F7E000E00BBF02C0FC
:1000F00007900D92A231B107D9F711E0A2E1B1E06A
:1001000001C01D92AF31B107E1F70E9453030C9477
:10011000BA030C940000CF93C82F8A3019F48DE0F5
:100120000E948B009091C00095FFFCCFC093C60049
:1001300080E090E0CF910895442349F021E030E041
:1001400002C0220F331F6A95E2F7822B089521E047
:1001500030E002C0220F331F6A95E2F72095822318
:10016000089521E030E002C0220F331F6A95E2F7C4
:100170008223089540E050E00CC000002F5F3F4F05
:1001800002C020E030E0273063E03607B4F34F5F71
:100190005F4F48175907ACF308952E988BB92F9AE3
:1001A00000002F9882E090E00E94BA00089581E05C
:1001B0000E94CD00089584E690E00E94BA0088E392
:1001C0000E94CD0086E00E94CD008FE00E94CD000D
:1001D00081E00E94CD008AE090E00E94BA0008957C
:1001E0002E9A8BB92F9A00002F9881E090E00E9400
:1001F000BA000895813120F481580E94CD000895FD
:1002000081550E94CD000895EF92FF920F931F93A6
:10021000CF93DF93182FEB010E94D7000EC001E0AF
:10022000010F812F0E94FA007E018FEFE81AF80A71
:1002300088810E94F000102FE70188818111EFCFA3
:10024000DF91CF911F910F91FF90EF90089540E0C3
:1002500064E08FEF0E949C0082B9000080B160E0F2
:1002600080950E94B100811180C080B161E08095CD
:100270000E94B10081117BC080B162E080950E9434
:10028000B100811176C080B163E080950E94B10019
:10029000811171C040E065E08FEF0E949C0082B93F
:1002A000000080B160E080950E94B100811165C0BE
:1002B00080B161E080950E94B100811160C080B181
:1002C00062E080950E94B10081115BC080B163E063
:1002D00080950E94B100811156C040E066E08FEF2A
:1002E0000E949C0082B9000080B160E080950E946D
:1002F000B10081114AC080B161E080950E94B100D7
:10030000811145C080B162E080950E94B1008111E9
:1003100040C080B163E080950E94B10081113BC074
:1003200040E067E08FEF0E949C0082B9000080B13E
:1003300060E080950E94B10081112FC080B161E022
:1003400080950E94B10081112AC080B162E0809541
:100350000E94B100811125C080B163E080950E94A8
:10036000B1008823F9F084E4089581E3089584E3DB
:10037000089587E308958AE2089582E3089585E366
:10038000089588E3089580E3089583E3089586E35C
:10039000089589E3089583E2089581E4089582E44D
:1003A000089583E4089560930001709301018093A0
:1003B00002019093030160931801709319018093D7
:1003C0001A0190931B0108958BE0809381008DE7C3
:1003D00090E0909389008093880082E080936F0082
:1003E000109285001092840080910001909101018B
:1003F000A0910201B091030180931801909319011B
:10040000A0931A01B0931B018FB780688FBF089526
:1004100010928100089581E080931C0108951F923D
:100420000F920FB60F9211240BB60F922F933F939A
:100430004F935F936F937F938F939F93AF93BF93EC
:10044000EF93FF938091180190911901A0911A01E7
:10045000B0911B010197A109B109809318019093F4
:100460001901A0931A01B0931B01892B8A2B8B2BA6
:1004700091F40E940B028091000190910101A091E2
:100480000201B09103018093180190931901A09388
:100490001A01B0931B01FF91EF91BF91AF919F9112
:1004A0008F917F916F915F914F913F912F910F901D
:1004B0000BBE0F900FBE0F901F9018958FEB84B955
:1004C00080E485B98CB581658CBD80E88FBF0895C7
:1004D000CF93C82F85B140E064E00E949C0085B9AD
:1004E000CEBD0DB407FEFDCF85B141E064E00E94B2
:1004F0009C0085B9CF91089580911D0190911E01B6
:100500008830910508F081C0FC01EA5BFF4F0C9434
:10051000B103892B39F481E090E090931E01809320
:100520001D0177C010921E0110921D0172C001972B
:1005300039F482E090E090931E0180931D0169C020
:1005400081E090E090931E0180931D0162C00297AC
:1005500039F483E090E090931E0180931D0159C00F
:1005600082E090E090931E0180931D0152C003979A
:1005700039F484E090E090931E0180931D0149C0FE
:1005800083E090E090931E0180931D0142C0049788
:1005900039F485E090E090931E0180931D0139C0ED
:1005A00084E090E090931E0180931D0132C0059776
:1005B00039F486E090E090931E0180931D0129C0DC
:1005C00085E090E090931E0180931D0122C0069764
:1005D00039F487E090E090931E0180931D0119C0CB
:1005E00086E090E090931E0180931D0112C0079752
:1005F00029F410921E0110921D010BC087E090E0BB
:1006000090931E0180931D0104C010921E01109250
:100610001D01E0911D01F0911E01E830F105E0F5AA
:10062000E25BFF4F0C94B10381E090E090931701DF
:1006300080931601089582E090E0909317018093D3
:100640001601089584E090E09093170180931601BD
:10065000089588E090E09093170180931601089523
:1006600080E190E09093170180931601089580E255
:1006700090E09093170180931601089580E490E034
:100680009093170180931601089580E890E090936D
:1006900017018093160108958FEF90E09093170152
:1006A00080931601089514B88FEF85B987B918B8EB
:1006B00090EF91B99FE092B98AB91BB80E945E028F
:1006C00010921E0110921D0164EF71E080E090E035
:1006D0000E94D3010E94E4010E942701809315012A
:1006E00090E0FC01F197E431F10558F5EA5AFF4F2B
:1006F0000C94B10381E08093130123C082E08093C6
:1007000013011FC083E0809313011BC084E080931A
:10071000130117C085E08093130113C086E0809316
:1007200013010FC080E1809312010BC080E280931F
:10073000120107C080E38093120103C080E480931C
:1007400012019091120180911301892B8093140161
:100750000E94680280911C018823E1F310921C0121
:10076000BBCFEE0FFF1F0024001C0BBE0790F691BD
:08077000E02D0994F894FFCF7D
:100778000100000000000002000000008B000000E3
:0207880000006F
:00000001FF
